:100000000200060200687581091200DFE5826003C4
:100010000200037900E94400601B7A009000E37855
:1000200001759300E493F2A308B800020593D9F494
:10003000DAF27593FFE478FFF6D8FD7800E8440023
:10004000600A7901759300E4F309D8FC7800E8446C
:1000500000600C7900900001E4F0A3D8FCD9FA020A
:10006000000343FD030200B912006243FF06D2A25F
:10007000B2A19000321200867582551200CF7582AF
:10008000DA1200CF80EAAE82AF83EE4F6012C00773
:10009000C0061200A1D006D0071EBEFF011F80EAD5
:1000A0002200750806750914E50914FF8F0970F818
:1000B000E50814FF8F0870F02253F1FE43F3284344
:1000C000FD2875860075C53175C20043864022AF94
:1000D000825386FD8FC1E5F820E0FB85C182227541
:0300E00082002279
:00000001FF
