:040000000200913237
:01000B0032C2
:0100130032BA
:01001B0032B2
:0100230032AA
:01002B0032A2
:01003300329A
:01003B003292
:01004300328A
:01004B003282
:01005300327A
:01005B003272
:01006300326A
:01006B003262
:01007300325A
:01007B003252
:01008300324A
:10008B0002013E0200F67581111201C5E582600383
:10009B0002008E7900E94400601B7A009001C97858
:1000AB0001759300E493F2A308B800020593D9F409
:1000BB00DAF27593FFE478FFF6D8FD7800E8440098
:1000CB00600A7901759300E4F309D8FC7800E844E1
:1000DB0000600C7900900001E4F0A3D8FCD9FAE49D
:1000EB00F508F509F50AF50B02008E12015F1201F6
:1000FB000FD2AF43FF06C2A1D2A29001F41201822C
:10010B00B2A180F653F1FE43F32843FD2B75860015
:10011B0075C53175C20043864043FE0453FEF74359
:10012B00FF0122AF825386FD8FC1E5F820E0FB85EE
:10013B00C18222C0E0C0D074022508F508E435095D
:10014B00F509E4350AF50AE4350BF50B53E8EFD066
:10015B00D0D0E03275C90F439A2022A2AFE433FF0F
:10016B00C2AFAB08AC09AD0AAE0BEF24FF92AF8B5D
:10017B00828C838DF0EE2285820C85830D120166B5
:10018B0085820E85830F85F010F511120166A8820A
:10019B00A983AEF0FFE8C3950EF8E9950FF9EE953C
:1001AB0010FEEF9511FFAA0CAB0D7C007D00C3E890
:0E01BB009AE99BEE9CEF9D40D22275820022B5
:00000001FF
