:10000000020006020062758107120094E582600317
:100010000200037900E94400601B7A0090009878A0
:1000200001759300E493F2A308B800020593D9F494
:10003000DAF27593FFE478FFF6D8FD7800E8440023
:10004000600A7901759300E4F309D8FC7800E8446C
:1000500000600C7900900001E4F0A3D8FCD9FA020A
:10006000000312006E43FF06D2A2B2A180FC53F13E
:10007000FE43F32843FD2B75860075C53175C2001C
:1000800043864022AF825386FD8FC1E5F820E0FB16
:0800900085C182227582002265
:00000001FF
