:040000000200913237
:01000B0032C2
:0100130032BA
:01001B0032B2
:0100230032AA
:01002B0032A2
:01003300329A
:01003B003292
:01004300328A
:01004B003282
:01005300327A
:01005B003272
:01006300326A
:01006B003262
:01007300325A
:01007B003252
:01008300324A
:10008B0002026E0200F67581111202F5E582600321
:10009B0002008E7900E94400601B7A009002F97827
:1000AB0001759300E493F2A308B800020593D9F409
:1000BB00DAF27593FFE478FFF6D8FD7800E8440098
:1000CB00600A7901759300E4F309D8FC7800E844E1
:1000DB0000600C7900900001E4F0A3D8FCD9FAE49D
:1000EB00F508F509F50AF50B02008ED2AF12028F57
:1000FB0043FF06C2A17F00BF0A00500FB2A19000C0
:10010B0032C0071202B2D0070F80EC1201AFD2A29D
:10011B009001F41202B2B2A180F63093FD9000C8A8
:10012B000202B275821012025C7E007F00C3EE9455
:10013B00C4EF940A50157582FFC007C00612024E19
:10014B00D006D0070EBE00E50F80E27582131202B7
:10015B005C7E007F00C3EE94C4EF940A5015758249
:10016B00FFC007C00612024ED006D0070EBE00E538
:10017B000F80E22275821212025C9000641202B2AE
:10018B003093FD9000C80202B275820212025C30FD
:10019B0093FD9000C81202B275820712025C758241
:1001AB00A502024E53F1FE75860075C53175C2006E
:1001BB0043864043F32843FD2B43FE0453FEF74392
:1001CB00FF01C2809003E81202B2C2A09000641239
:1001DB0002B2D2A09000641202B275820612025CC7
:1001EB0075821712024E75821712024E7582171204
:1001FB00024E75820412025C3093FD9000C812020D
:10020B00B275820012025C75820F12024E75820D5E
:10021B0012024E75826112025C75826812024E7573
:10022B00820012024E7582D412024E758250120257
:10023B005C75827712024E12012E12017F1201940D
:10024B00D28022AF82C2818FC1E58620E0FBD281B2
:10025B0022AF82C292C2818FC1E58620E0FBD281A0
:10026B00D29222C0E0C0D074022508F508E435090B
:10027B00F509E4350AF50AE4350BF50B53E8EFD035
:10028B00D0D0E03275C90F439A2022A2AFE433FFDE
:10029B00C2AFAB08AC09AD0AAE0BEF24FF92AF8B2C
:1002AB00828C838DF0EE2285820C85830D12029653
:1002BB0085820E85830F85F010F511120296A882A8
:1002CB00A983AEF0FFE8C3950EF8E9950FF9EE950B
:1002DB0010FEEF9511FFAA0CAB0D7C007D00C3E85F
:0E02EB009AE99BEE9CEF9D40D2227582002284
:00000001FF
