:0D00E70075C680E5BE30E6FB0043BE042276
:0900D200756100756200756300A0
:2000F400C020C0E0C0F0C082C083C007C006C005C004C003C002C001C000C0D075D000C284
:20011400EAE562B561028020E5622421F987F9AE627F008E828F83A37512408F1312051BEE
:20013400AE82AF838E628003756300D0D0D000D001D002D003D004D005D006D007D083D09F
:2001540082D0F0D0E0D0203253F1FDE5FF543F4440F5FF43F31043FD1043F88075FB02750F
:20017400FA2275FC0C439A08228582F9E5F830E1FB53F8FD2285826585836685F067E56479
:200194007001227C00C3EC95645073AA627B00EA24FFF582EB34FFF5837512408B13C00407
:2001B40012051BAA82AB83D004AE617F00EEB50206EFB5030280D4E5612421F9EC2565FD9E
:2001D400E43566FEAF678D828E838FF01204FFF7A2AFE433FFC2AFAD617E008D828E83A3A6
:2001F4007512408E13C007C00412051BAD82AE83D004D0078D61EF24FF92AF0C8087E5631F
:200214007005756301D2EA22AD82AE83AFF0C007C006C0051204E7AB82D005D006D0078B16
:0A023400648D828E838FF002018931
:0900DB00E4F508F509F50AF50B3E
:20023E00C0E0C0D0C2D874012508F508E43509F509E4350AF50AE4350BF50BD0D0D0E0324F
:20025E0075CBEA75CDCBD2BB43CB1022A2AFE433FFC2AFAB08AC09AD0AAE0BEF24FF92AF79
:20027E008B828C838DF0EE2285820C85830D12026A85820E85830F85F010F51112026AA834
:20029E0082A983AEF0FFE8C3950EF8E9950FF9EE9510FEEF9511FFAA0CAB0D7C007D00C3DA
:0B02BE00E89AE99BEE9CEF9D40D222E5
:04000000020079324F
:01000B0032C2
:0100130032BA
:01001B0032B2
:0100230032AA
:01002B0032A2
:01003300329A
:01003B003292
:01004300328A
:01004B003282
:01005300327A
:03005B0002023E60
:01006300326A
:01006B003262
:030073000200F494
:0300E400020076A1
:030076000202C9BA
:2002C9001200E7D2AF12025E12015C43FF06C2A17F00BF0A00500FB2A1900032C007120278
:2002E90086D0070F80ECD2A27C007D007E007F00C007C006C005C00412026AA882A983AA1F
:20030900F0FBD004D005D006D007C3E89CE99DEA9EEB9F40DB74E82CFC74033DFDE43EFE44
:20032900E43FFFB2A190055575F080C007C006C005C00412021CD004D005D006D00780B0A4
:0D05550068656C6C6F20776F726C6421001C
:200349003093FD9000C80202867582101204887E007F008E048F05C3EC94F8ED94155015F4
:200369007582FFC007C00612047AD006D0070EBE00E10F80DE7582131204887E007F008E67
:20038900048F05C3EC94F8ED941550157582FFC007C00612047AD006D0070EBE00E10F808A
:2003A900DE227582121204889000641202863093FD9000C80202867582021204883093FD06
:2003C9009000C81202867582071204887582A502047A53F1FE75860075C53175C2004386C2
:2003E9004043F32843FD2B43FE0453FEF743FF01C2809003E8120286C2A0900064120286D4
:20040900D2A090006412028675820612048875821712047A75821712047A75821712047A5E
:200429007582041204883093FD9000C812028675820012048875820F12047A75820D120423
:200449007A75826112048875829812047A75820112047A75822812047A7582501204887573
:20046900827712047A1203521203AB1203C0D28022AF82C2818FC1E58620E0FBD28122AF2C
:1104890082C292C2818FC1E58620E0FBD281D29222BA
:0600A800E478FFF6D8FD2C
:200086007900E94400601B7A0090056278007593F0E493F2A308B800020593D9F4DAF275E4
:0200A60093FFC6
:20049A00E512451360467A01E51225E0F512E513334012F513E5829512E583951340030ADF
:2004BA0080E6C3E51313F513E51213F512C3E5829512F5F0E58395134005F58385F082C398
:0D04DA00E51313F513E51213F512DAE12214
:2000AE007800E84400600A79007593F0E4F309D8FC7800E84400600C790090F000E4F0A37F
:0400CE00D8FCD9FA87
:1804E700AA82AB831204FF6003A380F8C3E5829AF582E5839BF5832238
:0D007900758167120551E582600302007673
:1C04FF0020F71430F6148883A88220F507E6A88375830022E280F7E49322E0220C
:20051B00C2D5E58330E70DD2D5E4C39582F582E49583F583E51330E70BE4C39512F512E4FA
:16053B009513F51312049A30D50BE4C39582F582E49583F583226F
:04055100758200228D
:00000001FF
