:1000F300AD82AE83AFF074812DFAE43EFB8F048AA8
:10010300828B838CF0E412078B74822DFAE43EFB1E
:100113008F048A828B838CF0E412078B74832DFD0A
:10012300E43EFE8D828E838FF074FF02078B8582FF
:100133000885830985F00A90000B75F040120502CB
:10014300E5827003F5822274812508FAE43509FB00
:10015300AC0A8A828B838CF012080BFABA800C8566
:100163000882850983850AF01200F374822508FA50
:10017300E43509FBAC0A8A828B838CF012080B608E
:100183003774812508F8E43509F9AF0A8882898331
:100193008FF012080BFE04888289838FF012078B7D
:1001A300EE2508FEE43509FFAD0A8E828F838DF0BC
:1001B300E50B12078B0202748A828B838CF0E50BAA
:1001C30012078B604E74832508FDE43509FEAF0AE0
:1001D3008D828E838FF012080BFDBDFF0280347475
:1001E300812508FDE43509FEAF0A8D828E838FF0E9
:1001F30012080BF904F88D828E838FF012078BE9B6
:100203002508F9E43509FFAE0A89828F838EF0E46D
:1002130012078B74832508FDE43509FEAF0A8A8231
:100223008B838CF012080BF98D828E838FF012076B
:100233008B703E74802508F50CE43509F50D850AAD
:100243000E74812508F8E43509F9AF0A8882898399
:100253008FF012080B850C82850D83850EF0120733
:100263008B850882850983850AF01200F375820164
:10027300228A828B838CF012080BFF1F8A828B8366
:100283008CF0EF12078B7582002285821085831113
:1002930085F0127C017B00C3EB950F5062EB2510B8
:1002A300F8E43511F9AA12888289838AF012080BBF
:1002B300F513BC01348C018B00C3E8950F5019E88A
:1002C3002510FAE43511FEAF128A828E838FF01265
:1002D300080B6004090880E189048982C004C00313
:1002E30012042BD003D00480011CE513600E851388
:1002F30082C004C00312042BD003D0040B8098BC2B
:1003030001058C8212042B75820002042B75C680B2
:0A031300E5BE30E6FB0043BE042205
:1000D20075140075150075160075170075180075F2
:0500E2001900751A0071
:10031D00C020C0E0C0F0C082C083C007C006C005C9
:10032D00C004C003C002C001C000C0D075D000C25F
:10033D00EAE515B51408E5177004F5168028E515DE
:10034D002400F582E434F0F583E0F5F9AE157F0075
:10035D008E828F83A3751E808F1F120827AE82AFEA
:10036D00838E15751700D0D0D000D001D002D003E8
:10037D00D004D005D006D007D083D082D0F0D0E005
:10038D00D02032C020C0E0C0F0C082C083C007C002
:10039D0006C005C004C003C002C001C000C0D075B6
:1003AD00D000C28FE51A60028031E5182480F582F5
:1003BD00E434F0F583E5F9F0AE187F008E828F837B
:1003CD00A3751E808F1F120827AE82AF838E18E58E
:1003DD0019B5180474018001E4F51AD0D0D000D0FD
:1003ED0001D002D003D004D005D006D007D083D0E1
:1003FD0082D0F0D0E0D0203253F1FDE5FF543F44E0
:10040D0040F5FF43F33043FD1053FDDF43F8C07556
:10041D00FB0275FA2275FC0C439A08D2AB22AF820F
:10042D00E51770FCE5142400F582E434F0F583EF54
:10043D00F0A2AFE433FFC2AFAD147E008D828E8388
:10044D00A3751E808E1FC007120827AD82D0078DA1
:10045D0014E515B5140474018001E4F517EF24FFBC
:10046D0092AFE5167005751601D2EA22AD82AE8304
:10047D00AFF0AB1BAC1C8B018C021BBBFF011CE94D
:10048D004A602A8D828E838FF012080BFAA3AD82FB
:10049D00AE838A82C007C006C005C004C003120423
:1004AD002BD003D004D005D006D00780C922AD8251
:1004BD00AE83AFF0C007C006C0051207F385821BDF
:1004CD0085831CD005D006D0078D828E838FF002D8
:1004DD000479A2AFE433FFC2AFAE18AD19EF24FF1C
:1004ED0092AFC3EE9D4006EEC39DF582227480C38C
:1004FD009D2EF58222AD82AE83AFF0A2AFE433FC28
:10050D00C2AFE519B51804E51A6005751D00800325
:10051D00751D01EC24FF92AFE51D6004758200226C
:10052D00E5192480F582E434F0F583E08D828E8325
:10053D008FF012078BAE197F008E828F83A3751EED
:10054D00808F1F120827AE828E19751A00758201D1
:01055D00227B
:0900E700E4F521F522F523F524CE
:10055E00C0E0C0D0C2D874012521F521E43522F5C2
:10056E0022E43523F523E43524F524D0D0D0E0322F
:10057E0075CBEA75CDCBD2BB43CB1022A2AFE43301
:10058E00FFC2AFAB21AC22AD23AE24EF24FF92AF5E
:10059E008B828C838DF0EE22858225858326120533
:1005AE008A85822785832885F029F52A12058AA84F
:1005BE0082A983AEF0FFE8C39527F8E99528F9EEF6
:1005CE009529FEEF952AFFAA25AB267C007D00C358
:0B05DE00E89AE99BEE9CEF9D40D222C2
:04000000020079324F
:01000B0032C2
:0100130032BA
:03001B000203904D
:0100230032AA
:01002B0032A2
:01003300329A
:01003B003292
:01004300328A
:01004B003282
:01005300327A
:03005B0002055E3D
:01006300326A
:01006B003262
:0300730002031D68
:0300F00002007695
:030076000205E997
:1005E90012031012057E120405D2AF43FF06C2A101
:1005F9007F00BF0A00500FB2A1900032C007120558
:10060900A6D0070F80ECD2A290F10075F00012007D
:10061900F390F10075F000120131E58260F390F179
:1006290080E0F50F90F10075F00012028DB2A18003
:10063900E03093FD9000C80205A675821012077973
:100649007E007F008E048F05C3EC94F8ED9415505D
:10065900157582FFC007C00612076BD006D0070EBA
:10066900BE00E10F80DE7582131207797E007F00DC
:100679008E048F05C3EC94F8ED941550157582FF1F
:10068900C007C00612076BD006D0070EBE00E10FE7
:1006990080DE227582121207799000641205A63055
:1006A90093FD9000C80205A675820212077930935E
:1006B900FD9000C81205A67582071207797582A5F3
:1006C90002076B53F1FE75860075C53175C200438B
:1006D900864043F32843FD2B43FE0453FEF743FFB3
:1006E90001C2809003E81205A6C2A0900064120519
:1006F900A6D2A09000641205A67582061207797524
:10070900821712076B75821712076B75821712070A
:100719006B7582041207793093FD9000C81205A603
:1007290075820012077975820F12076B75820D1297
:10073900076B75826112077975829812076B75824A
:100749000112076B75822812076B7582501207799F
:1007590075827712076B12064312069C1206B1D2F4
:100769008022AF82C2818FC1E58620E0FBD281223F
:10077900AF82C292C2818FC1E58620E0FBD281D2CD
:020789009222BA
:0600A800E478FFF6D8FD2C
:100086007900E94400601B7A0090086178847593D2
:10009600F1E493F2A308B800020593D9F4DAF275F5
:0200A60093FFC6
:10078B0020F71130F6138883A88220F509F6A88389
:10079B007583002280FEF280F5F022E51E451F6076
:1007AB00467A01E51E25E0F51EE51F334012F51FC5
:1007BB00E582951EE583951F40030A80E6C3E51F7E
:1007CB0013F51FE51E13F51EC3E582951EF5F0E527
:1007DB0083951F4005F58385F082C3E51F13F51F35
:0807EB00E51E13F51EDAE12200
:1000AE007800E84400600A79007593F0E4F309D80B
:1000BE00FC7884E84401600C790290F000E4F0A32F
:0400CE00D8FCD9FA87
:1007F300AA82AB8312080B6003A380F8C3E5829A35
:08080300F582E5839BF58322D9
:0D00790075812A12085DE5826003020076A1
:10080B0020F71430F6148883A88220F507E6A88316
:10081B0075830022E280F7E49322E022C2D5E583C0
:10082B0030E70DD2D5E4C39582F582E49583F58349
:10083B00E51F30E70BE4C3951EF51EE4951FF51F6E
:10084B001207A630D50BE4C39582F582E49583F5A8
:06085B00832275820022D9
:00000001FF
