:0D00F30075C680E5BE30E6FB0043BE04226A
:1500D200750800750900750A00750B00750C00750D00750E0099
:20010000C020C0E0C0F0C082C083C007C006C005C004C003C002C001C000C0D075D000C277
:20012000EAE509B50808E50B7004F50A8028E5092400F582E434F0F583E0F5F9AE097F000A
:200140008E828F83A3751D808F1E120686AE82AF838E09750B00D0D0D000D001D002D0031E
:20016000D004D005D006D007D083D082D0F0D0E0D02032C020C0E0C0F0C082C083C007C0B6
:2001800006C005C004C003C002C001C000C0D075D000C28FE50E60028031E50C2480F58292
:2001A000E434F0F583E5F9F0AE0C7F008E828F83A3751D808F1E120686AE82AF838E0CE5B5
:2001C0000DB50C0474018001E4F50ED0D0D000D001D002D003D004D005D006D007D083D011
:2001E00082D0F0D0E0D0203253F1FDE5FF543F4440F5FF43F33043FD1053FDDF43F8C07566
:20020000FB0275FA2275FC0C439A08D2AB22AF82E50B70FCE5082400F582E434F0F583EFCB
:20022000F0A2AFE433FFC2AFAD087E008D828E83A3751D808E1EC007120686AD82D0078D4A
:2002400008E509B5080474018001E4F50BEF24FF92AFE50A7005750A01D2EA22AD82AE8398
:20026000AFF0AB0FAC108B018C021BBBFF011CE94A602A8D828E838FF012066AFAA3AD82B3
:20028000AE838A82C007C006C005C004C00312020ED003D004D005D006D00780C922AD8263
:2002A000AE83AFF0C007C006C00512065285820F858310D005D006D0078D828E838FF00261
:2002C000025CA2AFE433FFC2AFC3E50C950D4008E50CC3950DFE800CAD0D7480C39DFDE57A
:2002E0000CFC2DFEEF24FF92AF8E8222AD82AE83AFF0A2AFE433FCC2AFE50DB50C04E50EC8
:2003000060057511008003751101EC24FF92AFE511600475820022E50D2480F582E434F010
:20032000F583E08D828E838FF01205EAA2AFE433FFC2AFAD0D7E008D828E83A3751D808E52
:180340001EC007120686AD82D0078D0D750E00EF24FF92AF7582012292
:0900E700E4F512F513F514F5150A
:20035800C0E0C0D0C2D874012512F512E43513F513E43514F514E43515F515D0D0D0E032E4
:2003780075CBEA75CDCBD2BB43CB1022A2AFE433FFC2AFAB12AC13AD14AE15EF24FF92AF36
:200398008B828C838DF0EE2285821685831712038485821885831985F01AF51B120384A8A7
:2003B80082A983AEF0FFE8C39518F8E99519F9EE951AFEEF951BFFAA16AB177C007D00C383
:0B03D800E89AE99BEE9CEF9D40D222CA
:04000000020079324F
:01000B0032C2
:0100130032BA
:03001B000201736C
:0100230032AA
:01002B0032A2
:01003300329A
:01003B003292
:01004300328A
:01004B003282
:01005300327A
:03005B0002035845
:01006300326A
:01006B003262
:0300730002010087
:0300F00002007695
:030076000203E39F
:2003E3001200F3D2AF1203781201E843FF06C2A17F00BF0A00500FB2A1900032C0071203A9
:20040300A0D0070F80ECD2A27C007D007E007F0090001C75F040C007C006C005C004120202
:20042300ECE582D004D005D006D0076018851C82C007C006C005C00412020ED004D005D0C4
:2004430006D007B2A1C007C006C005C004120384A882A983AAF0FBD004D005D006D007C3B6
:20046300E89CE99DEA9EEB9F40A674E82CFC74033DFDE43EFEE43FFFB2A19006C075F08072
:16048300C007C006C005C00412029ED004D005D006D0070204132C
:2006C0004C6F72656D20697073756D20646F6C6F722073697420616D65742C20636F6E7357
:2006E000656374657475722061646970697363696E6720656C69742E2053656420646F2078
:20070000656975736D6F642074656D706F7220696E6369646964756E74207574206C616289
:200720006F726520657420646F6C6F7265206D61676E6120616C697175612E205574206578
:200740006E696D206164206D696E696D2076656E69616D2C2071756973206E6F73747275BD
:200760006420657865726369746174696F6E20756C6C616D636F206C61626F726973206E3F
:2007800069736920757420616C697175697020657820656120636F6D6D6F646F20636F6EA5
:2007A0007365717561742E2044756973206175746520697275726520646F6C6F7220696E76
:2007C00020726570726568656E646572697420696E20766F6C7570746174652076656C69BD
:2007E0007420657373652063696C6C756D20646F6C6F726520657520667567696174206E42
:20080000756C6C612070617269617475722E204578636570746575722073696E74206F63CF
:2008200063616563617420637570696461746174206E6F6E2070726F6964656E742C2073C9
:20084000756E7420696E2063756C706120717569206F666669636961206465736572756E9F
:2008600074206D6F6C6C697420616E696D20696420657374206C61626F72756D2E0D0A00DE
:200499003093FD9000C80203A07582101205D87E007F008E048F05C3EC94F8ED9415501537
:2004B9007582FFC007C0061205CAD006D0070EBE00E10F80DE7582131205D87E007F008E74
:2004D900048F05C3EC94F8ED941550157582FFC007C0061205CAD006D0070EBE00E10F80E8
:2004F900DE227582121205D89000641203A03093FD9000C80203A07582021205D83093FDDD
:200519009000C81203A07582071205D87582A50205CA53F1FE75860075C53175C2004386B3
:200539004043F32843FD2B43FE0453FEF743FF01C2809003E81203A0C2A09000641203A04C
:20055900D2A09000641203A07582061205D87582171205CA7582171205CA7582171205CAAE
:200579007582041205D83093FD9000C81203A07582001205D875820F1205CA75820D1205C3
:20059900CA7582611205D87582981205CA7582011205CA7582281205CA7582501205D8753D
:2005B90082771205CA1204A21204FB120510D28022AF82C2818FC1E58620E0FBD28122AF96
:1105D90082C292C2818FC1E58620E0FBD281D2922269
:0600A800E478FFF6D8FD2C
:200086007900E94400601B7A0090088078007593F1E493F2A308B800020593D9F4DAF275C2
:0200A60093FFC6
:1B05EA0020F71130F6138883A88220F509F6A8837583002280FEF280F5F02210
:20060500E51D451E60467A01E51D25E0F51DE51E334012F51EE582951DE583951E40030A1A
:2006250080E6C3E51E13F51EE51D13F51DC3E582951DF5F0E583951E4005F58385F082C3E9
:0D064500E51E13F51EE51D13F51DDAE1227B
:2000AE007800E84400600A79007593F0E4F309D8FC7800E84401600C790190F000E4F0A37D
:0400CE00D8FCD9FA87
:18065200AA82AB8312066A6003A380F8C3E5829AF582E5839BF583225E
:0D0079007581201206BCE58260030200764E
:1C066A0020F71430F6148883A88220F507E6A88375830022E280F7E49322E0229F
:20068600C2D5E58330E70DD2D5E4C39582F582E49583F583E51E30E70BE4C3951DF51DE46D
:1606A600951EF51E12060530D50BE4C39582F582E49583F5832280
:0406BC007582002221
:00000001FF
